{
  "_format": "hh-sol-artifact-1",
  "contractName": "Split",
  "sourceName": "contracts/Split.sol",
  "abi": [
    {
      "inputs": [
        {
          "internalType": "address",
          "name": "_router",
          "type": "address"
        },
        {
          "internalType": "address",
          "name": "_link",
          "type": "address"
        }
      ],
      "stateMutability": "nonpayable",
      "type": "constructor"
    },
    {
      "inputs": [
        {
          "internalType": "uint64",
          "name": "destinationChainSelector",
          "type": "uint64"
        }
      ],
      "name": "DestinationChainNotWhitelisted",
      "type": "error"
    },
    {
      "inputs": [
        {
          "internalType": "address",
          "name": "owner",
          "type": "address"
        },
        {
          "internalType": "address",
          "name": "target",
          "type": "address"
        },
        {
          "internalType": "uint256",
          "name": "value",
          "type": "uint256"
        }
      ],
      "name": "FailedToWithdrawEth",
      "type": "error"
    },
    {
      "inputs": [
        {
          "internalType": "uint256",
          "name": "currentBalance",
          "type": "uint256"
        },
        {
          "internalType": "uint256",
          "name": "calculatedFees",
          "type": "uint256"
        }
      ],
      "name": "NotEnoughBalance",
      "type": "error"
    },
    {
      "inputs": [],
      "name": "NothingToWithdraw",
      "type": "error"
    },
    {
      "anonymous": false,
      "inputs": [
        {
          "indexed": true,
          "internalType": "address",
          "name": "from",
          "type": "address"
        },
        {
          "indexed": true,
          "internalType": "address",
          "name": "to",
          "type": "address"
        }
      ],
      "name": "OwnershipTransferRequested",
      "type": "event"
    },
    {
      "anonymous": false,
      "inputs": [
        {
          "indexed": true,
          "internalType": "address",
          "name": "from",
          "type": "address"
        },
        {
          "indexed": true,
          "internalType": "address",
          "name": "to",
          "type": "address"
        }
      ],
      "name": "OwnershipTransferred",
      "type": "event"
    },
    {
      "anonymous": false,
      "inputs": [
        {
          "indexed": true,
          "internalType": "bytes32",
          "name": "messageId",
          "type": "bytes32"
        },
        {
          "indexed": true,
          "internalType": "uint64",
          "name": "destinationChainSelector",
          "type": "uint64"
        },
        {
          "indexed": false,
          "internalType": "address",
          "name": "receiver",
          "type": "address"
        },
        {
          "indexed": false,
          "internalType": "address",
          "name": "token",
          "type": "address"
        },
        {
          "indexed": false,
          "internalType": "uint256",
          "name": "tokenAmount",
          "type": "uint256"
        },
        {
          "indexed": false,
          "internalType": "address",
          "name": "feeToken",
          "type": "address"
        },
        {
          "indexed": false,
          "internalType": "uint256",
          "name": "fees",
          "type": "uint256"
        }
      ],
      "name": "TokensTransferred",
      "type": "event"
    },
    {
      "inputs": [],
      "name": "acceptOwnership",
      "outputs": [],
      "stateMutability": "nonpayable",
      "type": "function"
    },
    {
      "inputs": [
        {
          "components": [
            {
              "internalType": "address",
              "name": "senderAddress",
              "type": "address"
            },
            {
              "internalType": "uint64",
              "name": "chain",
              "type": "uint64"
            },
            {
              "internalType": "uint256",
              "name": "amount",
              "type": "uint256"
            }
          ],
          "internalType": "struct Split.Transaction[]",
          "name": "_groupedTransactions",
          "type": "tuple[]"
        }
      ],
      "name": "addTransactions",
      "outputs": [],
      "stateMutability": "nonpayable",
      "type": "function"
    },
    {
      "inputs": [
        {
          "internalType": "uint64",
          "name": "_destinationChainSelector",
          "type": "uint64"
        }
      ],
      "name": "denylistChain",
      "outputs": [],
      "stateMutability": "nonpayable",
      "type": "function"
    },
    {
      "inputs": [
        {
          "internalType": "uint256",
          "name": "index",
          "type": "uint256"
        }
      ],
      "name": "getTransaction",
      "outputs": [
        {
          "internalType": "address",
          "name": "",
          "type": "address"
        },
        {
          "internalType": "uint64",
          "name": "",
          "type": "uint64"
        },
        {
          "internalType": "uint256",
          "name": "",
          "type": "uint256"
        }
      ],
      "stateMutability": "view",
      "type": "function"
    },
    {
      "inputs": [],
      "name": "owner",
      "outputs": [
        {
          "internalType": "address",
          "name": "",
          "type": "address"
        }
      ],
      "stateMutability": "view",
      "type": "function"
    },
    {
      "inputs": [],
      "name": "split",
      "outputs": [],
      "stateMutability": "nonpayable",
      "type": "function"
    },
    {
      "inputs": [],
      "name": "transactionData",
      "outputs": [],
      "stateMutability": "nonpayable",
      "type": "function"
    },
    {
      "inputs": [
        {
          "internalType": "uint256",
          "name": "",
          "type": "uint256"
        }
      ],
      "name": "transactions",
      "outputs": [
        {
          "internalType": "address",
          "name": "senderAddress",
          "type": "address"
        },
        {
          "internalType": "uint64",
          "name": "chain",
          "type": "uint64"
        },
        {
          "internalType": "uint256",
          "name": "amount",
          "type": "uint256"
        }
      ],
      "stateMutability": "view",
      "type": "function"
    },
    {
      "inputs": [
        {
          "internalType": "address",
          "name": "to",
          "type": "address"
        }
      ],
      "name": "transferOwnership",
      "outputs": [],
      "stateMutability": "nonpayable",
      "type": "function"
    },
    {
      "inputs": [
        {
          "internalType": "uint64",
          "name": "_destinationChainSelector",
          "type": "uint64"
        },
        {
          "internalType": "address",
          "name": "_receiver",
          "type": "address"
        },
        {
          "internalType": "address",
          "name": "_token",
          "type": "address"
        },
        {
          "internalType": "uint256",
          "name": "_amount",
          "type": "uint256"
        }
      ],
      "name": "transferTokensPayLINK",
      "outputs": [
        {
          "internalType": "bytes32",
          "name": "messageId",
          "type": "bytes32"
        }
      ],
      "stateMutability": "nonpayable",
      "type": "function"
    },
    {
      "inputs": [
        {
          "internalType": "uint64",
          "name": "_destinationChainSelector",
          "type": "uint64"
        },
        {
          "internalType": "address",
          "name": "_receiver",
          "type": "address"
        },
        {
          "internalType": "address",
          "name": "_token",
          "type": "address"
        },
        {
          "internalType": "uint256",
          "name": "_amount",
          "type": "uint256"
        }
      ],
      "name": "transferTokensPayNative",
      "outputs": [
        {
          "internalType": "bytes32",
          "name": "messageId",
          "type": "bytes32"
        }
      ],
      "stateMutability": "nonpayable",
      "type": "function"
    },
    {
      "inputs": [
        {
          "internalType": "uint64",
          "name": "_destinationChainSelector",
          "type": "uint64"
        }
      ],
      "name": "whitelistChain",
      "outputs": [],
      "stateMutability": "nonpayable",
      "type": "function"
    },
    {
      "inputs": [
        {
          "internalType": "uint64",
          "name": "",
          "type": "uint64"
        }
      ],
      "name": "whitelistedChains",
      "outputs": [
        {
          "internalType": "bool",
          "name": "",
          "type": "bool"
        }
      ],
      "stateMutability": "view",
      "type": "function"
    },
    {
      "inputs": [
        {
          "internalType": "address",
          "name": "_beneficiary",
          "type": "address"
        }
      ],
      "name": "withdraw",
      "outputs": [],
      "stateMutability": "nonpayable",
      "type": "function"
    },
    {
      "inputs": [
        {
          "internalType": "address",
          "name": "_beneficiary",
          "type": "address"
        },
        {
          "internalType": "address",
          "name": "_token",
          "type": "address"
        }
      ],
      "name": "withdrawToken",
      "outputs": [],
      "stateMutability": "nonpayable",
      "type": "function"
    },
    {
      "stateMutability": "payable",
      "type": "receive"
    }
  ],
  "bytecode": "0x608060405273fd57b4ddbf88a4e07ff4e34c487b99af2fe82a05600660006101000a81548173ffffffffffffffffffffffffffffffffffffffff021916908373ffffffffffffffffffffffffffffffffffffffff1602179055503480156200006657600080fd5b50604051620029e2380380620029e283398181016040528101906200008c9190620003ae565b338060008073ffffffffffffffffffffffffffffffffffffffff168273ffffffffffffffffffffffffffffffffffffffff160362000101576040517f08c379a0000000000000000000000000000000000000000000000000000000008152600401620000f89062000456565b60405180910390fd5b816000806101000a81548173ffffffffffffffffffffffffffffffffffffffff021916908373ffffffffffffffffffffffffffffffffffffffff160217905550600073ffffffffffffffffffffffffffffffffffffffff168173ffffffffffffffffffffffffffffffffffffffff1614620001885762000187816200021560201b60201c565b5b50505081600360006101000a81548173ffffffffffffffffffffffffffffffffffffffff021916908373ffffffffffffffffffffffffffffffffffffffff16021790555080600460006101000a81548173ffffffffffffffffffffffffffffffffffffffff021916908373ffffffffffffffffffffffffffffffffffffffff1602179055505050620004ea565b3373ffffffffffffffffffffffffffffffffffffffff168173ffffffffffffffffffffffffffffffffffffffff160362000286576040517f08c379a00000000000000000000000000000000000000000000000000000000081526004016200027d90620004c8565b60405180910390fd5b80600160006101000a81548173ffffffffffffffffffffffffffffffffffffffff021916908373ffffffffffffffffffffffffffffffffffffffff1602179055508073ffffffffffffffffffffffffffffffffffffffff1660008054906101000a900473ffffffffffffffffffffffffffffffffffffffff1673ffffffffffffffffffffffffffffffffffffffff167fed8889f560326eb138920d842192f0eb3dd22b4f139c87a2c57538e05bae127860405160405180910390a350565b600080fd5b600073ffffffffffffffffffffffffffffffffffffffff82169050919050565b6000620003768262000349565b9050919050565b620003888162000369565b81146200039457600080fd5b50565b600081519050620003a8816200037d565b92915050565b60008060408385031215620003c857620003c762000344565b5b6000620003d88582860162000397565b9250506020620003eb8582860162000397565b9150509250929050565b600082825260208201905092915050565b7f43616e6e6f7420736574206f776e657220746f207a65726f0000000000000000600082015250565b60006200043e601883620003f5565b91506200044b8262000406565b602082019050919050565b6000602082019050818103600083015262000471816200042f565b9050919050565b7f43616e6e6f74207472616e7366657220746f2073656c66000000000000000000600082015250565b6000620004b0601783620003f5565b9150620004bd8262000478565b602082019050919050565b60006020820190508181036000830152620004e381620004a1565b9050919050565b6124e880620004fa6000396000f3fe6080604052600436106100ec5760003560e01c8063763574f61161008a5780639ace38c2116100595780639ace38c2146102eb578063d345ac7d1461032a578063f2fde38b14610353578063f76541761461037c576100f3565b8063763574f61461022f57806379ba50971461026c5780638da5cb5b1461028357806395e1402c146102ae576100f3565b80633aeac4e1116100c65780633aeac4e11461017757806351419b4b146101a057806351cff8d9146101dd57806368cdc62714610206576100f3565b8063278bd065146100f857806333ea3dc81461010f57806334625dcc1461014e576100f3565b366100f357005b600080fd5b34801561010457600080fd5b5061010d610393565b005b34801561011b57600080fd5b50610136600480360381019061013191906118cb565b6103ab565b6040516101459392919061196b565b60405180910390f35b34801561015a57600080fd5b50610175600480360381019061017091906119ce565b61046e565b005b34801561018357600080fd5b5061019e60048036038101906101999190611a27565b6104b9565b005b3480156101ac57600080fd5b506101c760048036038101906101c29190611a67565b6105fd565b6040516101d49190611ae7565b60405180910390f35b3480156101e957600080fd5b5061020460048036038101906101ff9190611b02565b610913565b005b34801561021257600080fd5b5061022d60048036038101906102289190611cf1565b610a11565b005b34801561023b57600080fd5b50610256600480360381019061025191906119ce565b610b04565b6040516102639190611d55565b60405180910390f35b34801561027857600080fd5b50610281610b24565b005b34801561028f57600080fd5b50610298610cb9565b6040516102a59190611d70565b60405180910390f35b3480156102ba57600080fd5b506102d560048036038101906102d09190611a67565b610ce2565b6040516102e29190611ae7565b60405180910390f35b3480156102f757600080fd5b50610312600480360381019061030d91906118cb565b611232565b6040516103219392919061196b565b60405180910390f35b34801561033657600080fd5b50610351600480360381019061034c91906119ce565b6112a0565b005b34801561035f57600080fd5b5061037a60048036038101906103759190611b02565b6112eb565b005b34801561038857600080fd5b506103916112ff565b005b61039b6113ff565b600560006103a99190611787565b565b600080600060058054905084106103f7576040517f08c379a00000000000000000000000000000000000000000000000000000000081526004016103ee90611de8565b60405180910390fd5b60006005858154811061040d5761040c611e08565b5b906000526020600020906002020190508060000160009054906101000a900473ffffffffffffffffffffffffffffffffffffffff168160000160149054906101000a900467ffffffffffffffff168260010154935093509350509193909250565b6104766113ff565b6000600260008367ffffffffffffffff1667ffffffffffffffff16815260200190815260200160002060006101000a81548160ff02191690831515021790555050565b6104c16113ff565b60008173ffffffffffffffffffffffffffffffffffffffff166370a08231306040518263ffffffff1660e01b81526004016104fc9190611d70565b602060405180830381865afa158015610519573d6000803e3d6000fd5b505050506040513d601f19601f8201168201806040525081019061053d9190611e4c565b905060008103610579576040517fd0d04f6000000000000000000000000000000000000000000000000000000000815260040160405180910390fd5b8173ffffffffffffffffffffffffffffffffffffffff1663a9059cbb84836040518363ffffffff1660e01b81526004016105b4929190611e79565b6020604051808303816000875af11580156105d3573d6000803e3d6000fd5b505050506040513d601f19601f820116820180604052508101906105f79190611ece565b50505050565b60006106076113ff565b84600260008267ffffffffffffffff1667ffffffffffffffff16815260200190815260200160002060009054906101000a900460ff1661067e57806040517f4651d51a0000000000000000000000000000000000000000000000000000000081526004016106759190611efb565b60405180910390fd5b600061068d868686600061148f565b90506000600360009054906101000a900473ffffffffffffffffffffffffffffffffffffffff1673ffffffffffffffffffffffffffffffffffffffff166320487ded89846040518363ffffffff1660e01b81526004016106ee92919061211c565b602060405180830381865afa15801561070b573d6000803e3d6000fd5b505050506040513d601f19601f8201168201806040525081019061072f9190611e4c565b9050478111156107785747816040517f8f0f420600000000000000000000000000000000000000000000000000000000815260040161076f92919061214c565b60405180910390fd5b8573ffffffffffffffffffffffffffffffffffffffff1663095ea7b3600360009054906101000a900473ffffffffffffffffffffffffffffffffffffffff16876040518363ffffffff1660e01b81526004016107d5929190611e79565b6020604051808303816000875af11580156107f4573d6000803e3d6000fd5b505050506040513d601f19601f820116820180604052508101906108189190611ece565b50600360009054906101000a900473ffffffffffffffffffffffffffffffffffffffff1673ffffffffffffffffffffffffffffffffffffffff166396f4e9f9828a856040518463ffffffff1660e01b815260040161087792919061211c565b60206040518083038185885af1158015610895573d6000803e3d6000fd5b50505050506040513d601f19601f820116820180604052508101906108ba91906121a1565b93508767ffffffffffffffff16847fc15fb748c32ba4eb29c1c311e78533f93b4425eab49ea87c6fe4279ecadca0438989896000876040516109009594939291906121ce565b60405180910390a3505050949350505050565b61091b6113ff565b60004790506000810361095a576040517fd0d04f6000000000000000000000000000000000000000000000000000000000815260040160405180910390fd5b60008273ffffffffffffffffffffffffffffffffffffffff168260405161098090612252565b60006040518083038185875af1925050503d80600081146109bd576040519150601f19603f3d011682016040523d82523d6000602084013e6109c2565b606091505b5050905080610a0c573383836040517f9d11f563000000000000000000000000000000000000000000000000000000008152600401610a0393929190612267565b60405180910390fd5b505050565b610a196113ff565b60005b8151811015610b00576005828281518110610a3a57610a39611e08565b5b6020026020010151908060018154018082558091505060019003906000526020600020906002020160009091909190915060008201518160000160006101000a81548173ffffffffffffffffffffffffffffffffffffffff021916908373ffffffffffffffffffffffffffffffffffffffff16021790555060208201518160000160146101000a81548167ffffffffffffffff021916908367ffffffffffffffff1602179055506040820151816001015550508080610af8906122cd565b915050610a1c565b5050565b60026020528060005260406000206000915054906101000a900460ff1681565b600160009054906101000a900473ffffffffffffffffffffffffffffffffffffffff1673ffffffffffffffffffffffffffffffffffffffff163373ffffffffffffffffffffffffffffffffffffffff1614610bb4576040517f08c379a0000000000000000000000000000000000000000000000000000000008152600401610bab90612361565b60405180910390fd5b60008060009054906101000a900473ffffffffffffffffffffffffffffffffffffffff169050336000806101000a81548173ffffffffffffffffffffffffffffffffffffffff021916908373ffffffffffffffffffffffffffffffffffffffff1602179055506000600160006101000a81548173ffffffffffffffffffffffffffffffffffffffff021916908373ffffffffffffffffffffffffffffffffffffffff1602179055503373ffffffffffffffffffffffffffffffffffffffff168173ffffffffffffffffffffffffffffffffffffffff167f8be0079c531659141344cd1fd0a4f28419497f9722a3daafe3b4186f6b6457e060405160405180910390a350565b60008060009054906101000a900473ffffffffffffffffffffffffffffffffffffffff16905090565b6000610cec6113ff565b84600260008267ffffffffffffffff1667ffffffffffffffff16815260200190815260200160002060009054906101000a900460ff16610d6357806040517f4651d51a000000000000000000000000000000000000000000000000000000008152600401610d5a9190611efb565b60405180910390fd5b6000610d93868686600460009054906101000a900473ffffffffffffffffffffffffffffffffffffffff1661148f565b90506000600360009054906101000a900473ffffffffffffffffffffffffffffffffffffffff1673ffffffffffffffffffffffffffffffffffffffff166320487ded89846040518363ffffffff1660e01b8152600401610df492919061211c565b602060405180830381865afa158015610e11573d6000803e3d6000fd5b505050506040513d601f19601f82011682018060405250810190610e359190611e4c565b9050600460009054906101000a900473ffffffffffffffffffffffffffffffffffffffff1673ffffffffffffffffffffffffffffffffffffffff166370a08231306040518263ffffffff1660e01b8152600401610e929190611d70565b602060405180830381865afa158015610eaf573d6000803e3d6000fd5b505050506040513d601f19601f82011682018060405250810190610ed39190611e4c565b811115610fb457600460009054906101000a900473ffffffffffffffffffffffffffffffffffffffff1673ffffffffffffffffffffffffffffffffffffffff166370a08231306040518263ffffffff1660e01b8152600401610f359190611d70565b602060405180830381865afa158015610f52573d6000803e3d6000fd5b505050506040513d601f19601f82011682018060405250810190610f769190611e4c565b816040517f8f0f4206000000000000000000000000000000000000000000000000000000008152600401610fab92919061214c565b60405180910390fd5b600460009054906101000a900473ffffffffffffffffffffffffffffffffffffffff1673ffffffffffffffffffffffffffffffffffffffff1663095ea7b3600360009054906101000a900473ffffffffffffffffffffffffffffffffffffffff16836040518363ffffffff1660e01b8152600401611033929190611e79565b6020604051808303816000875af1158015611052573d6000803e3d6000fd5b505050506040513d601f19601f820116820180604052508101906110769190611ece565b508573ffffffffffffffffffffffffffffffffffffffff1663095ea7b3600360009054906101000a900473ffffffffffffffffffffffffffffffffffffffff16876040518363ffffffff1660e01b81526004016110d4929190611e79565b6020604051808303816000875af11580156110f3573d6000803e3d6000fd5b505050506040513d601f19601f820116820180604052508101906111179190611ece565b50600360009054906101000a900473ffffffffffffffffffffffffffffffffffffffff1673ffffffffffffffffffffffffffffffffffffffff166396f4e9f989846040518363ffffffff1660e01b815260040161117592919061211c565b6020604051808303816000875af1158015611194573d6000803e3d6000fd5b505050506040513d601f19601f820116820180604052508101906111b891906121a1565b93508767ffffffffffffffff16847fc15fb748c32ba4eb29c1c311e78533f93b4425eab49ea87c6fe4279ecadca043898989600460009054906101000a900473ffffffffffffffffffffffffffffffffffffffff168760405161121f9594939291906121ce565b60405180910390a3505050949350505050565b6005818154811061124257600080fd5b90600052602060002090600202016000915090508060000160009054906101000a900473ffffffffffffffffffffffffffffffffffffffff16908060000160149054906101000a900467ffffffffffffffff16908060010154905083565b6112a86113ff565b6001600260008367ffffffffffffffff1667ffffffffffffffff16815260200190815260200160002060006101000a81548160ff02191690831515021790555050565b6112f36113ff565b6112fc816115dc565b50565b6113076113ff565b60005b6005805490508110156113fc576113e86005828154811061132e5761132d611e08565b5b906000526020600020906002020160000160149054906101000a900467ffffffffffffffff166005838154811061136857611367611e08565b5b906000526020600020906002020160000160009054906101000a900473ffffffffffffffffffffffffffffffffffffffff16600660009054906101000a900473ffffffffffffffffffffffffffffffffffffffff16600585815481106113d1576113d0611e08565b5b9060005260206000209060020201600101546105fd565b5080806113f4906122cd565b91505061130a565b50565b60008054906101000a900473ffffffffffffffffffffffffffffffffffffffff1673ffffffffffffffffffffffffffffffffffffffff163373ffffffffffffffffffffffffffffffffffffffff161461148d576040517f08c379a0000000000000000000000000000000000000000000000000000000008152600401611484906123cd565b60405180910390fd5b565b6114976117ab565b6000600167ffffffffffffffff8111156114b4576114b3611b45565b5b6040519080825280602002602001820160405280156114ed57816020015b6114da6117f0565b8152602001906001900390816114d25790505b509050600060405180604001604052808773ffffffffffffffffffffffffffffffffffffffff168152602001868152509050808260008151811061153457611533611e08565b5b602002602001018190525060006040518060a001604052808960405160200161155d9190611d70565b60405160208183030381529060405281526020016040518060200160405280600081525081526020018481526020018673ffffffffffffffffffffffffffffffffffffffff1681526020016115c960405180604001604052806000815260200160001515815250611708565b8152509050809350505050949350505050565b3373ffffffffffffffffffffffffffffffffffffffff168173ffffffffffffffffffffffffffffffffffffffff160361164a576040517f08c379a000000000000000000000000000000000000000000000000000000000815260040161164190612439565b60405180910390fd5b80600160006101000a81548173ffffffffffffffffffffffffffffffffffffffff021916908373ffffffffffffffffffffffffffffffffffffffff1602179055508073ffffffffffffffffffffffffffffffffffffffff1660008054906101000a900473ffffffffffffffffffffffffffffffffffffffff1673ffffffffffffffffffffffffffffffffffffffff167fed8889f560326eb138920d842192f0eb3dd22b4f139c87a2c57538e05bae127860405160405180910390a350565b60606397a657c960e01b826040516024016117239190612497565b604051602081830303815290604052907bffffffffffffffffffffffffffffffffffffffffffffffffffffffff19166020820180517bffffffffffffffffffffffffffffffffffffffffffffffffffffffff83818316178352505050509050919050565b50805460008255600202906000526020600020908101906117a89190611820565b50565b6040518060a00160405280606081526020016060815260200160608152602001600073ffffffffffffffffffffffffffffffffffffffff168152602001606081525090565b6040518060400160405280600073ffffffffffffffffffffffffffffffffffffffff168152602001600081525090565b5b8082111561187d57600080820160006101000a81549073ffffffffffffffffffffffffffffffffffffffff02191690556000820160146101000a81549067ffffffffffffffff0219169055600182016000905550600201611821565b5090565b6000604051905090565b600080fd5b600080fd5b6000819050919050565b6118a881611895565b81146118b357600080fd5b50565b6000813590506118c58161189f565b92915050565b6000602082840312156118e1576118e061188b565b5b60006118ef848285016118b6565b91505092915050565b600073ffffffffffffffffffffffffffffffffffffffff82169050919050565b6000611923826118f8565b9050919050565b61193381611918565b82525050565b600067ffffffffffffffff82169050919050565b61195681611939565b82525050565b61196581611895565b82525050565b6000606082019050611980600083018661192a565b61198d602083018561194d565b61199a604083018461195c565b949350505050565b6119ab81611939565b81146119b657600080fd5b50565b6000813590506119c8816119a2565b92915050565b6000602082840312156119e4576119e361188b565b5b60006119f2848285016119b9565b91505092915050565b611a0481611918565b8114611a0f57600080fd5b50565b600081359050611a21816119fb565b92915050565b60008060408385031215611a3e57611a3d61188b565b5b6000611a4c85828601611a12565b9250506020611a5d85828601611a12565b9150509250929050565b60008060008060808587031215611a8157611a8061188b565b5b6000611a8f878288016119b9565b9450506020611aa087828801611a12565b9350506040611ab187828801611a12565b9250506060611ac2878288016118b6565b91505092959194509250565b6000819050919050565b611ae181611ace565b82525050565b6000602082019050611afc6000830184611ad8565b92915050565b600060208284031215611b1857611b1761188b565b5b6000611b2684828501611a12565b91505092915050565b600080fd5b6000601f19601f8301169050919050565b7f4e487b7100000000000000000000000000000000000000000000000000000000600052604160045260246000fd5b611b7d82611b34565b810181811067ffffffffffffffff82111715611b9c57611b9b611b45565b5b80604052505050565b6000611baf611881565b9050611bbb8282611b74565b919050565b600067ffffffffffffffff821115611bdb57611bda611b45565b5b602082029050602081019050919050565b600080fd5b600080fd5b600060608284031215611c0c57611c0b611bf1565b5b611c166060611ba5565b90506000611c2684828501611a12565b6000830152506020611c3a848285016119b9565b6020830152506040611c4e848285016118b6565b60408301525092915050565b6000611c6d611c6884611bc0565b611ba5565b90508083825260208201905060608402830185811115611c9057611c8f611bec565b5b835b81811015611cb95780611ca58882611bf6565b845260208401935050606081019050611c92565b5050509392505050565b600082601f830112611cd857611cd7611b2f565b5b8135611ce8848260208601611c5a565b91505092915050565b600060208284031215611d0757611d0661188b565b5b600082013567ffffffffffffffff811115611d2557611d24611890565b5b611d3184828501611cc3565b91505092915050565b60008115159050919050565b611d4f81611d3a565b82525050565b6000602082019050611d6a6000830184611d46565b92915050565b6000602082019050611d85600083018461192a565b92915050565b600082825260208201905092915050565b7f496e646578206f7574206f6620626f756e647300000000000000000000000000600082015250565b6000611dd2601383611d8b565b9150611ddd82611d9c565b602082019050919050565b60006020820190508181036000830152611e0181611dc5565b9050919050565b7f4e487b7100000000000000000000000000000000000000000000000000000000600052603260045260246000fd5b600081519050611e468161189f565b92915050565b600060208284031215611e6257611e6161188b565b5b6000611e7084828501611e37565b91505092915050565b6000604082019050611e8e600083018561192a565b611e9b602083018461195c565b9392505050565b611eab81611d3a565b8114611eb657600080fd5b50565b600081519050611ec881611ea2565b92915050565b600060208284031215611ee457611ee361188b565b5b6000611ef284828501611eb9565b91505092915050565b6000602082019050611f10600083018461194d565b92915050565b600081519050919050565b600082825260208201905092915050565b60005b83811015611f50578082015181840152602081019050611f35565b60008484015250505050565b6000611f6782611f16565b611f718185611f21565b9350611f81818560208601611f32565b611f8a81611b34565b840191505092915050565b600081519050919050565b600082825260208201905092915050565b6000819050602082019050919050565b611fca81611918565b82525050565b611fd981611895565b82525050565b604082016000820151611ff56000850182611fc1565b5060208201516120086020850182611fd0565b50505050565b600061201a8383611fdf565b60408301905092915050565b6000602082019050919050565b600061203e82611f95565b6120488185611fa0565b935061205383611fb1565b8060005b8381101561208457815161206b888261200e565b975061207683612026565b925050600181019050612057565b5085935050505092915050565b600060a08301600083015184820360008601526120ae8282611f5c565b915050602083015184820360208601526120c88282611f5c565b915050604083015184820360408601526120e28282612033565b91505060608301516120f76060860182611fc1565b506080830151848203608086015261210f8282611f5c565b9150508091505092915050565b6000604082019050612131600083018561194d565b81810360208301526121438184612091565b90509392505050565b6000604082019050612161600083018561195c565b61216e602083018461195c565b9392505050565b61217e81611ace565b811461218957600080fd5b50565b60008151905061219b81612175565b92915050565b6000602082840312156121b7576121b661188b565b5b60006121c58482850161218c565b91505092915050565b600060a0820190506121e3600083018861192a565b6121f0602083018761192a565b6121fd604083018661195c565b61220a606083018561192a565b612217608083018461195c565b9695505050505050565b600081905092915050565b50565b600061223c600083612221565b91506122478261222c565b600082019050919050565b600061225d8261222f565b9150819050919050565b600060608201905061227c600083018661192a565b612289602083018561192a565b612296604083018461195c565b949350505050565b7f4e487b7100000000000000000000000000000000000000000000000000000000600052601160045260246000fd5b60006122d882611895565b91507fffffffffffffffffffffffffffffffffffffffffffffffffffffffffffffffff820361230a5761230961229e565b5b600182019050919050565b7f4d7573742062652070726f706f736564206f776e657200000000000000000000600082015250565b600061234b601683611d8b565b915061235682612315565b602082019050919050565b6000602082019050818103600083015261237a8161233e565b9050919050565b7f4f6e6c792063616c6c61626c65206279206f776e657200000000000000000000600082015250565b60006123b7601683611d8b565b91506123c282612381565b602082019050919050565b600060208201905081810360008301526123e6816123aa565b9050919050565b7f43616e6e6f74207472616e7366657220746f2073656c66000000000000000000600082015250565b6000612423601783611d8b565b915061242e826123ed565b602082019050919050565b6000602082019050818103600083015261245281612416565b9050919050565b61246281611d3a565b82525050565b60408201600082015161247e6000850182611fd0565b5060208201516124916020850182612459565b50505050565b60006040820190506124ac6000830184612468565b9291505056fea26469706673582212206d4690f3b2eee2eae9fa20d8b7f1ea31f7879888989f92826838171c7ed35fa764736f6c63430008130033",
  "linkReferences": {},
  "deployedLinkReferences": {}
}